{
  "abi": [
    {
      "inputs": [
        {
          "internalType": "address",
          "name": "",
          "type": "address"
        },
        {
          "internalType": "address",
          "name": "",
          "type": "address"
        },
        {
          "internalType": "bytes32",
          "name": "",
          "type": "bytes32"
        },
        {
          "internalType": "bytes",
          "name": "",
          "type": "bytes"
        }
      ],
      "name": "beforeLockTransfer",
      "outputs": [
        {
          "internalType": "bytes4",
          "name": "",
          "type": "bytes4"
        }
      ],
      "stateMutability": "pure",
      "type": "function"
    },
    {
      "inputs": [
        {
          "internalType": "address",
          "name": "",
          "type": "address"
        },
        {
          "internalType": "address",
          "name": "",
          "type": "address"
        },
        {
          "internalType": "bytes32",
          "name": "",
          "type": "bytes32"
        },
        {
          "internalType": "bytes",
          "name": "",
          "type": "bytes"
        }
      ],
      "name": "onLockReceived",
      "outputs": [
        {
          "internalType": "bytes4",
          "name": "",
          "type": "bytes4"
        }
      ],
      "stateMutability": "pure",
      "type": "function"
    }
  ],
  "bytecode": {
    "object": "0x6080806040523461001657610183908161001c8239f35b600080fdfe608080604052600436101561001357600080fd5b60003560e01c9081634fb0710514610077575063c42d8b951461003557600080fd5b3461007257610043366100b2565b505050505060206040517fc42d8b95000000000000000000000000000000000000000000000000000000008152f35b600080fd5b3461007257602090610088366100b2565b50505050507f4fb07105000000000000000000000000000000000000000000000000000000008152f35b60807ffffffffffffffffffffffffffffffffffffffffffffffffffffffffffffffffc8201126100725773ffffffffffffffffffffffffffffffffffffffff9160043583811681036100725792602435908116810361007257916044359160643567ffffffffffffffff928382116100725780602383011215610072578160040135938411610072576024848301011161007257602401919056fea2646970667358221220ed2bce8405cd75e7ef507b299ba7e33503299f3de202bdba8ab0f80d2ea599ef64736f6c63430008110033",
    "linkReferences": {}
  },
  "methodIdentifiers": {
    "beforeLockTransfer(address,address,bytes32,bytes)": "4fb07105",
    "onLockReceived(address,address,bytes32,bytes)": "c42d8b95"
  },
  "id": 25
}